:101E7600546573742073756363657373210A005424
:101E8600657374206661696C6564210A0054657324
:0D1E9600742066696E6973686564210A0036
:101D300090007E7401F01227BD90007EE07BFF6072
:101D4000067A1E797680047A1E79851200657BFFFB
:0F1D50007A1E799312006590007F7401F080FE77
:100F87004143414C4C5F46554E430A004C43414C4C
:100F97004C5F46554E430A005245545F46554E43F3
:100FA7000A00524554495F46554E430A00414A4D8F
:100FB700505F46554E430A00534A4D505F46554EC3
:100FC700430A004A4D505F46554E430A004A5A5F4E
:100FD70046554E430A004A4E5A5F46554E430A004D
:100FE700434A4E455F415F44495F52454C0A0043BF
:100FF7004A4E455F415F44415F52454C0A00434AB0
:101007004E455F524E5F44415F52454C0A00434A8A
:101017004E455F52495F44415F52454C0A00444A7E
:101027004E5A5F524E5F52454C0A00444A4E5A5F31
:0810370044495F52454C0A00D8
:10181F007BFF7A0F7987120065C0D0C0E075D000CA
:10182F00D2D3D2D4E581113C800B00000004048593
:10183F0081F02200000065F0600590007EE4F0E585
:10184F00F024FE6581600590007EE4F0D0E0D0D0FA
:03185F000227ABB2
:1016CB007BFF7A0F7993120065C0D0C0E075D00014
:1016DB00D2D3D2D4E5811216E9800B0000000404AA
:1016EB008581F02200000065F0600590007EE4F03B
:1016FB00E5F024FE6581600590007EE4F0D0E0D03B
:04170B00D00227AB36
:101B19007BFF7A0F799F120065C0D0C0E075D000B5
:101B2900D2D3D2D4121B3C8581F005F005F0800890
:101B3900000000E5812200000065F0600590007E4C
:091B4900E4F0D0E0D0D00227AB9B
:101B52007BFF7A0F79A9120065C0D0C0E075D00072
:101B6200D2D3D2D4121B758581F005F005F080081E
:101B7200000000E5813200000065F0600590007E03
:091B8200E4F0D0E0D0D00227AB62
:1025DF007BFF7A0F79B4120065C0D0C0E075D000D0
:1025EF00D2D3D2D4E4A1F874FF00600590007EE44A
:0825FF00F0D0E0D0D00227ABC0
:102607007BFF7A0F79BF120065C0D0C0E075D0009C
:10261700D2D3D2D4E4800274FF00600590007EE438
:08262700F0D0E0D0D00227AB97
:101CCE007BFF7A0F79CA120065C0D0C0E075D000D4
:101CDE00D2D3D2D475F000901CEEA374FF7374FFB0
:101CEE0000E5F0600590007EE4F0D0E0D0D0022751
:011CFE00AB3A
:101AA5007BFF7A0F79D4120065C0D0C0E075D000F5
:101AB500D2D3D2D475F00074FF600D75F0FFE460E9
:101AC50007000075F000000000E5F0F460059000E7
:0A1AD5007EE4F0D0E0D0D00227AB91
:101ADF007BFF7A0F79DD120065C0D0C0E075D000B2
:101AEF00D2D3D2D475F0007400700D75F0FF04706E
:101AFF0007000075F000000000E5F0F460059000AD
:0A1B0F007EE4F0D0E0D0D00227AB56
:1015FA007BFF7A0F79E7120065C0D0C0E075D00092
:10160A00D2D3D2D475F0007400752000B5200E0034
:10161A0075F0FF0520B520050075F0000000E5F023
:10162A00F4600590007EE4F020D70590007EE4F097
:07163A00D0E0D0D00227AB85
:1018E8007BFF7A0F79F6120065C0D0C0E075D00092
:1018F800D2D3D2D475F0007435B4350C0075F0FF2E
:10190800B436050075F0000000E5F0F460059000BD
:101918007EE4F020D70590007EE4F0D0E0D0D0023D
:0219280027ABEB
:10192A007BFF7A107905120065C0D0C0E075D0003F
:10193A00D2D3D2D475F0007F35BF350C0075F0FFD5
:10194A00BF36050075F0000000E5F0F46005900070
:10195A007EE4F020D70590007EE4F0D0E0D0D002FB
:02196A0027ABA9
:10170F007BFF7A107915120065C0D0C0E075D0004C
:10171F00D2D3D2D475F0007F35791FB7350C007551
:10172F00F0FFB736050075F0000000E5F0F4600536
:10173F0090007EE4F020D70590007EE4F0D0E0D05A
:04174F00D00227ABF2
:10196C007BFF7A107925120065C0D0C0E075D000DD
:10197C00D2D3D2D475F0007F01DF0A75F0FFDF05FA
:10198C000075F0000000E5F0F4600590007EE4F0D6
:10199C00781FE6F4600590007EE4F0D0E0D0D00231
:0219AC0027AB67
:101753007BFF7A107932120065C0D0C0E075D000EB
:10176300D2D3D2D475F0007F01D51F0B75F0FFD50E
:101773001F050075F0000000E5F0F4600590007EA1
:10178300E4F0781FE6F4600590007EE4F0D0E0D04A
:04179300D00227ABAE
:10103F00434C525F430A00434C525F4249540A00EB
:10104F00534554425F430A00534554425F4249544B
:10105F000A0043504C5F430A0043504C5F424954CF
:10106F000A00414E4C5F435F4249540A00414E4CC7
:10107F005F435F4E4249540A004F524C5F435F42F9
:10108F0049540A004F524C5F435F4E4249540A0085
:10109F004D4F565F435F4249540A004D4F565F42D2
:1010AF0049545F430A004A435F430A004A4E435F75
:1010BF00430A004A425F4249540A004A4E425F4285
:0D10CF0049540A004A42435F4249540A0056
:102718007BFF7A10793F120065C0D0C0E075D00009
:10272800D2D3D2D4D3C330D70590007EE4F0D0E022
:05273800D0D00227AB28
:101FB1007BFF7A107946120065C0D0C0E075D00071
:101FC100D2D3D2D47520FFC2077820E6647F6005A2
:0C1FD10090007EE4F0D0E0D0D00227ABFE
:102787007BFF7A10794F120065C0D0C0E075D0008A
:10279700D2D3D2D4D320D70590007EE4F0D0E0D0B6
:0427A700D00227AB8A
:101FDD007BFF7A107957120065C0D0C0E075D00034
:101FED00D2D3D2D4752000D2067820E664406005A5
:0C1FFD0090007EE4F0D0E0D0D00227ABD2
:10273D007BFF7A107961120065C0D0C0E075D000C2
:10274D00D2D3D2D4C3B320D70590007EE4F0D0E02D
:05275D00D0D00227AB03
:102009007BFF7A107968120065C0D0C0E075D000F6
:10201900D2D3D2D4752055B2077820E664D56005AD
:0C20290090007EE4F0D0E0D0D00227ABA5
:10246E007BFF7A107971120065C0D0C0E075D00084
:10247E00D2D3D2D475207FD3820730D70590007E79
:09248E00E4F0D0E0D0D00227AB4D
:102497007BFF7A10797C120065C0D0C0E075D00050
:1024A700D2D3D2D4752010D3B00430D70590007E94
:0924B700E4F0D0E0D0D00227AB24
:1024C0007BFF7A107988120065C0D0C0E075D0001B
:1024D000D2D3D2D4752080C3720720D70590007E56
:0924E000E4F0D0E0D0D00227ABFB
:1024E9007BFF7A107993120065C0D0C0E075D000E7
:1024F900D2D3D2D47520EFC3A00420D70590007E93
:09250900E4F0D0E0D0D00227ABD1
:102512007BFF7A10799F120065C0D0C0E075D000B1
:10252200D2D3D2D4752080C3A20720D70590007ED3
:09253200E4F0D0E0D0D00227ABA8
:101EA3007BFF7A1079AA120065C0D0C0E075D0001C
:101EB300D2D3D2D4752000D392047820E664106084
:0D1EC3000590007EE4F0D0E0D0D00227AB07
:101410007BFF7A1079B5120065C0D0C0E075D000AE
:10142000D2D3D2D4C34006B34008000000E4800801
:10143000000074FF8002000000F4600590007EE46C
:10144000F08010000000E48012000074FF800C00A7
:10145000000000C340F0B340F2000000F4600590CB
:0B146000007EE4F0D0E0D0D00227AB0B
:10146B007BFF7A1079BB120065C0D0C0E075D0004D
:10147B00D2D3D2D4D35006B35008000000E4800876
:10148B00000074FF8002000000F4600590007EE411
:10149B00F08010000000E48012000074FF800C004C
:1014AB00000000D350F0B350F2000000F460059040
:0B14BB00007EE4F0D0E0D0D00227ABB0
:101346007BFF7A1079C2120065C0D0C0E075D0006C
:10135600D2D3D2D47520F7200308B20320030800A5
:101366000000E48008000074FF8002000000F460C2
:101376000590007EE4F08010000000E48017000075
:1013860074FF8011000000007520F72003EDB20302
:101396002003ED000000F4600590007EE4F0D0E04C
:0513A600D0D00227ABCE
:1013AB007BFF7A1079CA120065C0D0C0E075D000FF
:1013BB00D2D3D2D4752010300408B2043004080004
:1013CB000000E48008000074FF8002000000F4605D
:1013DB000590007EE4F08010000000E48017000010
:1013EB0074FF8011000000007520103004EDB20472
:1013FB003004ED000000F4600590007EE4F0D0E0D6
:05140B00D0D00227AB68
:1011EB007BFF7A1079D3120065C0D0C0E075D000B8
:1011FB00D2D3D2D47520F7100308B2031003080022
:10120B000000E48008000074FF8002000000F4601E
:10121B000590007EE4F07820E664F7600590007E90
:10122B00E4F08010000000E48017000074FF8011D0
:10123B00000000007520F71003EDB2031003ED0062
:10124B000000F4600590007EE4F07820E664F7601F
:0D125B000590007EE4F0D0E0D0D00227AB7B
:10035F004D4F565F415F524E0A004D4F565F415F02
:10036F0044490A004D4F565F415F52490A004D4FB5
:10037F00565F415F44410A004D4F565F524E5F41F9
:10038F000A004D4F565F524E5F44490A004D4F567B
:10039F005F524E5F44410A004D4F565F44495F41E3
:1003AF000A004D4F565F44495F524E0A004D4F565B
:1003BF005F44495F44490A004D4F565F44495F52BD
:1003CF00490A004D4F565F44495F44410A004D4F63
:1003DF00565F52495F410A004D4F565F52495F4485
:1003EF00490A004D4F565F52495F44410A004D4F35
:1003FF00565F44505F44410A004D4F56435F415F83
:10040F0044500A004D4F56435F415F50430A004D21
:10041F004F56585F415F52490A004D4F56585F4142
:10042F005F44500A004D4F56585F52495F410A00D2
:10043F004D4F56585F44505F410A00505553485F27
:10044F0044490A00504F505F44490A005843485FDF
:10045F00415F524E0A005843485F415F44490A00CA
:10046F005843485F415F52490A00584348445F412F
:05047F005F52490A0074
:10239C007BFF7A03795F120065C0D0C0E075D00076
:1023AC00D2D3D2D475E0A57DF0ED64F06005900039
:0A23BC007EE4F0D0E0D0D00227ABA1
:102219007BFF7A037969120065C0D0C0E075D000F0
:10222900D2D3D2D475E0A57DF0E51D64F0600590A8
:0B223900007EE4F0D0E0D0D00227AB24
:102035007BFF7A037973120065C0D0C0E075D000CC
:10204500D2D3D2D475E0A57DF0781DE664F06005A5
:0C20550090007EE4F0D0E0D0D00227AB79
:1026F2007BFF7A03797D120065C0D0C0E075D000FF
:10270200D2D3D2D474F464F4600590007EE4F0D0A5
:06271200E0D0D00227AB6D
:102244007BFF7A037987120065C0D0C0E075D000A7
:10225400D2D3D2D475E038FD781DE6643860059099
:0B226400007EE4F0D0E0D0D00227ABF9
:10226F007BFF7A037991120065C0D0C0E075D00072
:10227F00D2D3D2D4796AAD19781DE6646A6005901D
:0B228F00007EE4F0D0E0D0D00227ABCE
:10253B007BFF7A03799C120065C0D0C0E075D00098
:10254B00D2D3D2D47DF1781DE664F1600590007E84
:09255B00E4F0D0E0D0D00227AB7F
:10229A007BFF7A0379A7120065C0D0C0E075D00031
:1022AA00D2D3D2D474DCF51F781FE664DC600590C3
:0B22BA00007EE4F0D0E0D0D00227ABA3
:1022C5007BFF7A0379B1120065C0D0C0E075D000FC
:1022D500D2D3D2D47CDC8C1F781FE664DC600590F9
:0B22E500007EE4F0D0E0D0D00227AB78
:102061007BFF7A0379BC120065C0D0C0E075D00057
:10207100D2D3D2D47C16851C1F781FE66416600566
:0C20810090007EE4F0D0E0D0D00227AB4D
:101ED0007BFF7A0379C7120065C0D0C0E075D000DF
:101EE000D2D3D2D47C47791C871F781FE664476021
:0D1EF0000590007EE4F0D0E0D0D00227ABDA
:1023C6007BFF7A0379D2120065C0D0C0E075D000D9
:1023D600D2D3D2D4751FAB781FE664AB60059000EC
:0A23E6007EE4F0D0E0D0D00227AB77
:10208D007BFF7A0379DD120065C0D0C0E075D0000A
:10209D00D2D3D2D4745F781EF6781EE6645F6005E5
:0C20AD0090007EE4F0D0E0D0D00227AB21
:101EFD007BFF7A0379E7120065C0D0C0E075D00092
:101F0D00D2D3D2D47F33781EA61F781EE6643360F9
:0D1F1D000590007EE4F0D0E0D0D00227ABAC
:1022F0007BFF7A0379F2120065C0D0C0E075D00090
:10230000D2D3D2D4781E769A781EE6649A6005906D
:0B231000007EE4F0D0E0D0D00227AB4C
:101C67007BFF7A0379FD120065C0D0C0E075D00014
:101C7700D2D3D2D490781EE582641E600590007E90
:101C8700E4F0E5836478600590007EE4F0D0E0D06E
:041C9700D00227ABA5
:101CFF007BFF7A047908120065C0D0C0E075D00070
:101D0F00D2D3D2D4E4901D1C93800500007800003C
:101D1F00006478600590007EE4F0D0E0D0D0022718
:011D2F00AB08
:101D5F007BFF7A047913120065C0D0C0E075D00004
:101D6F00D2D3D2D4740483800500005300000064E2
:0F1D7F0053600590007EE4F0D0E0D0D00227AB97
:1020B9007BFF7A04791E120065C0D0C0E075D0009C
:1020C900D2D3D2D4780075E095F2E4E26495600544
:0C20D90090007EE4F0D0E0D0D00227ABF5
:101F2A007BFF7A047929120065C0D0C0E075D00021
:101F3A00D2D3D2D490000175E03DF0E4E0643D6074
:0D1F4A000590007EE4F0D0E0D0D00227AB7F
:1020E5007BFF7A047934120065C0D0C0E075D0005A
:1020F500D2D3D2D4780075E095F2E4E26495600518
:0C21050090007EE4F0D0E0D0D00227ABC8
:101F57007BFF7A04793F120065C0D0C0E075D000DE
:101F6700D2D3D2D490000175E03DF0E4E0643D6047
:0D1F77000590007EE4F0D0E0D0D00227AB52
:101A2E007BFF7A04794A120065C0D0C0E075D00001
:101A3E00D2D3D2D47FEDE581C01F04A88186F06594
:101A4E0081600590007EE4F0E5F064ED60059000A5
:0C1A5E007EE4F0D01FD0E0D0D00227AB17
:101A6A007BFF7A047953120065C0D0C0E075D000BC
:101A7A00D2D3D2D47E007F49C01FE581D01E14651F
:101A8A0081600590007EE4F0781EE6644960059066
:0B1A9A00007EE4F0D0E0D0D00227ABCB
:101C32007BFF7A04795B120065C0D0C0E075D000EA
:101C4200D2D3D2D47F2275E0FFCF64226005900008
:101C52007EE4F0781FE6F4600590007EE4F0D0E0C8
:051C6200D0D00227AB09
:101BFB007BFF7A047965120065C0D0C0E075D00018
:101C0B00D2D3D2D47E5475E088C51E64546005903F
:101C1B00007EE4F0781EE66488600590007EE4F0B8
:071C2B00D0E0D0D00227AB8E
:101B8B007BFF7A04796F120065C0D0C0E075D0007E
:101B9B00D2D3D2D47D9975E0A1791DC76499600524
:101BAB0090007EE4F0781DE664A1600590007EE471
:081BBB00F0D0E0D0D00227AB0E
:101BC3007BFF7A047979120065C0D0C0E075D0003C
:101BD300D2D3D2D47D9975E0A1791DD764A96005CC
:101BE30090007EE4F0781DE66491600590007EE449
:081BF300F0D0E0D0D00227ABD6
:10048400414E4C5F415F524E0A00414E4C5F415F0A
:1004940044490A00414E4C5F415F52490A00414EB3
:1004A4004C5F415F44410A00414E4C5F44495F4107
:1004B4000A00414E4C5F44495F44410A004F524C8C
:1004C4005F415F524E0A004F524C5F415F44490AFC
:1004D400004F524C5F415F52490A004F524C5F41FA
:1004E4005F44410A004F524C5F44495F410A004F48
:1004F400524C5F44495F44410A0058524C5F415F8B
:10050400524E0A0058524C5F415F44490A00585207
:100514004C5F415F52490A0058524C5F415F44416D
:100524000A0058524C5F44495F410A0058524C5FDC
:1005340044495F44410A00434C525F410A0043501E
:100544004C5F410A00524C5F410A00524C435F41E8
:100554000A0052525F410A005252435F410A00535B
:070564005741505F410A00FE
:1023F0007BFF7A047984120065C0D0C0E075D000FC
:10240000D2D3D2D475E0A578F05864A060059000CE
:0A2410007EE4F0D0E0D0D00227AB4C
:10231B007BFF7A04798E120065C0D0C0E075D000C7
:10232B00D2D3D2D475E0A57B0F551B640560059005
:0B233B00007EE4F0D0E0D0D00227AB21
:102111007BFF7A047998120065C0D0C0E075D000C9
:10212100D2D3D2D475E0A57BF0791B5764A06005AA
:0C21310090007EE4F0D0E0D0D00227AB9C
:102564007BFF7A0479A2120065C0D0C0E075D00068
:10257400D2D3D2D475E0A5540F6405600590007ED3
:09258400E4F0D0E0D0D00227AB56
:101DEC007BFF7A0479AC120065C0D0C0E075D000DE
:101DFC00D2D3D2D475E0A57B0F521B781BE66405B9
:0E1E0C00600590007EE4F0D0E0D0D00227AB5D
:10213D007BFF7A0479B6120065C0D0C0E075D0007F
:10214D00D2D3D2D47BF0531BA5781BE664A06005D7
:0C215D0090007EE4F0D0E0D0D00227AB70
:10241A007BFF7A0479C1120065C0D0C0E075D00094
:10242A00D2D3D2D475E0A578F04864F5600590005F
:0A243A007EE4F0D0E0D0D00227AB22
:102346007BFF7A0479CB120065C0D0C0E075D0005F
:10235600D2D3D2D475E0A57B0F451B64AF60059040
:0B236600007EE4F0D0E0D0D00227ABF6
:102169007BFF7A0479D5120065C0D0C0E075D00034
:10217900D2D3D2D475E0A57BF0791B4764F560050D
:0C21890090007EE4F0D0E0D0D00227AB44
:10258D007BFF7A0479DF120065C0D0C0E075D00002
:10259D00D2D3D2D475E0A5440F64AF600590007E10
:0925AD00E4F0D0E0D0D00227AB2D
:101E1A007BFF7A0479E9120065C0D0C0E075D00072
:101E2A00D2D3D2D475E0A57B0F421B781BE664AFF0
:0E1E3A00600590007EE4F0D0E0D0D00227AB2F
:102195007BFF7A0479F3120065C0D0C0E075D000EA
:1021A500D2D3D2D47BF0431BA5781BE664F560053A
:0C21B50090007EE4F0D0E0D0D00227AB18
:102444007BFF7A0479FE120065C0D0C0E075D0002D
:10245400D2D3D2D475E0A578F068645560059000B5
:0A2464007EE4F0D0E0D0D00227ABF8
:102371007BFF7A057908120065C0D0C0E075D000F6
:10238100D2D3D2D475E0A57B0F651B64AA600590FA
:0B239100007EE4F0D0E0D0D00227ABCB
:1021C1007BFF7A057912120065C0D0C0E075D0009E
:1021D100D2D3D2D475E0A57BF0791B676455600535
:0C21E10090007EE4F0D0E0D0D00227ABEC
:1025B6007BFF7A05791C120065C0D0C0E075D0009B
:1025C600D2D3D2D475E0A5640F64AA600590007ECC
:0925D600E4F0D0E0D0D00227AB04
:101E48007BFF7A057926120065C0D0C0E075D00006
:101E5800D2D3D2D475E0A57B0F621B781BE664AAA7
:0E1E6800600590007EE4F0D0E0D0D00227AB01
:1021ED007BFF7A057930120065C0D0C0E075D00054
:1021FD00D2D3D2D47BF0631BA5781BE66455600562
:0C220D0090007EE4F0D0E0D0D00227ABBF
:102762007BFF7A05793B120065C0D0C0E075D000CE
:10277200D2D3D2D474FFE4600590007EE4F0D0E0BE
:05278200D0D00227ABDE
:10262F007BFF7A057942120065C0D0C0E075D000FB
:10263F00D2D3D2D474A5F4645A600590007EE4F02E
:07264F00D0E0D0D00227AB60
:102656007BFF7A057949120065C0D0C0E075D000CD
:10266600D2D3D2D474A0236441600590007EE4F0F6
:07267600D0E0D0D00227AB39
:101D8E007BFF7A05794F120065C0D0C0E075D00098
:101D9E00D2D3D2D474A0336440600590007EE4F0B8
:0F1DAE0020D70590007EE4F0D0E0D0D00227AB24
:10267D007BFF7A057956120065C0D0C0E075D00099
:10268D00D2D3D2D474E10364F0600590007EE4F0FF
:07269D00D0E0D0D00227AB12
:101DBD007BFF7A05795C120065C0D0C0E075D0005C
:101DCD00D2D3D2D474E1136470600590007EE4F038
:0F1DDD0020D70590007EE4F0D0E0D0D00227ABF5
:1026A4007BFF7A057963120065C0D0C0E075D00065
:1026B400D2D3D2D47437C46473600590007EE4F03E
:0726C400D0E0D0D00227ABEB
:10056B004144445F415F524E0A004144445F415F46
:10057B0044490A004144445F415F52490A004144E7
:10058B00445F415F44410A00414444435F415F5231
:10059B004E0A00414444435F415F44490A004144D1
:1005AB0044435F415F52490A00414444435F415F0A
:1005BB0044410A00535542425F415F524E0A005379
:1005CB005542425F415F44490A00535542425F41E5
:1005DB005F52490A00535542425F415F44410A0052
:1005EB00494E435F410A00494E435F524E0A004950
:1005FB004E435F44490A00494E435F52490A004942
:10060B004E435F44500A004445435F410A00444552
:10061B00435F524E0A004445435F44490A00444538
:10062B00435F52490A004D554C540A004449564900
:08063B0044450A0044410A0095
:100C87007BFF7A05796B120065C0D0C0E075D00094
:100C9700D2D3D2D475E001780F2864106005900094
:100CA7007EE4F020D60590007EE4F030D205900077
:100CB7007EE4F030D70590007EE4F0C2D675E040C0
:100CC7007940296480600590007EE4F030D6059075
:100CD700007EE4F020D20590007EE4F030D7059046
:100CE700007EE4F0C2D275E0807A812A6401600553
:100CF70090007EE4F030D60590007EE4F020D20527
:100D070090007EE4F020D70590007EE4F0C2D2C2C6
:100D1700D775E0C07BC22B6482600590007EE4F04B
:100D270030D60590007EE4F030D20590007EE4F0E6
:100D370020D70590007EE4F0C2D7D0E0D0D00227BC
:010D4700AB00
:100A38007BFF7A057975120065C0D0C0E075D000DB
:100A4800D2D3D2D475E001780F25186410600590D0
:100A5800007EE4F020D60590007EE4F030D20590C8
:100A6800007EE4F030D70590007EE4F0C2D675E051
:100A780040794025196480600590007EE4F030D606
:100A88000590007EE4F020D20590007EE4F030D797
:100A98000590007EE4F0C2D275E0807A81251A6460
:100AA80001600590007EE4F030D60590007EE4F009
:100AB80020D20590007EE4F020D70590007EE4F077
:100AC800C2D2C2D775E0C07BC2251B648260059084
:100AD800007EE4F030D60590007EE4F030D2059038
:100AE800007EE4F020D70590007EE4F0C2D7D0E085
:050AF800D0D00227AB85
:1007DD007BFF7A05797F120065C0D0C0E075D0002F
:1007ED00D2D3D2D475E0017A0F781A266410600541
:1007FD0090007EE4F020D60590007EE4F030D20526
:10080D0090007EE4F030D70590007EE4F0C2D675FE
:10081D00E0407A40781A266480600590007EE4F00E
:10082D0030D60590007EE4F020D20590007EE4F0F5
:10083D0030D70590007EE4F0C2D275E0807B8179DF
:10084D001B276401600590007EE4F030D605900012
:10085D007EE4F020D20590007EE4F020D7059000D4
:10086D007EE4F0C2D2C2D775E0C07BC2791B27648B
:10087D0082600590007EE4F030D60590007EE4F0B5
:10088D0030D20590007EE4F020D70590007EE4F094
:09089D00C2D7D0E0D0D00227AB95
:100ECA007BFF7A057989120065C0D0C0E075D00031
:100EDA00D2D3D2D475E001240F6410600590007E4D
:100EEA00E4F020D60590007EE4F030D20590007E32
:100EFA00E4F030D70590007EE4F0C2D675E04024D5
:100F0A00406480600590007EE4F030D60590007E53
:100F1A00E4F020D20590007EE4F030D70590007E00
:100F2A00E4F0C2D275E08024816401600590007EFD
:100F3A00E4F030D60590007EE4F020D20590007EE1
:100F4A00E4F020D70590007EE4F0C2D2C2D775E063
:100F5A00C024C26482600590007EE4F030D6059019
:100F6A00007EE4F030D20590007EE4F020D70590B0
:0D0F7A00007EE4F0C2D7D0E0D0D00227AB5B
:100AFD007BFF7A057993120065C0D0C0E075D000F8
:100B0D00D2D3D2D475E001780FD33864116005903B
:100B1D00007EE4F020D60590007EE4F030D2059002
:100B2D00007EE4F030D70590007EE4F0C2D675E08B
:100B3D00407940D3396481600590007EE4F030D671
:100B4D000590007EE4F020D20590007EE4F030D7D1
:100B5D000590007EE4F0C2D275E0807A81D33A64CC
:100B6D0002600590007EE4F030D60590007EE4F042
:100B7D0020D20590007EE4F020D70590007EE4F0B1
:100B8D00C2D2C2D775E0C07BC2D33B6483600590EF
:100B9D00007EE4F030D60590007EE4F030D2059072
:100BAD00007EE4F020D70590007EE4F0C2D7D0E0BF
:050BBD00D0D00227ABBF
:1008A6007BFF7A05799E120065C0D0C0E075D00046
:1008B600D2D3D2D475E001780FD335186411600510
:1008C60090007EE4F020D60590007EE4F030D2055C
:1008D60090007EE4F030D70590007EE4F0C2D67535
:1008E600E0407940D335196481600590007EE4F0DC
:1008F60030D60590007EE4F020D20590007EE4F02C
:1009060030D70590007EE4F0C2D275E0807A81D3BC
:10091600351A6402600590007EE4F030D60590003A
:100926007EE4F020D20590007EE4F020D70590000A
:100936007EE4F0C2D2C2D775E0C07BC2D3351B6459
:1009460083600590007EE4F030D60590007EE4F0EA
:1009560030D20590007EE4F020D70590007EE4F0CA
:09096600C2D7D0E0D0D00227ABCB
:100643007BFF7A0579A9120065C0D0C0E075D000A0
:10065300D2D3D2D475E0017A0F781AD336641160FD
:100663000590007EE4F020D60590007EE4F030D2C1
:100673000590007EE4F030D70590007EE4F0C2D60A
:1006830075E0407A40781AD3366481600590007E25
:10069300E4F030D60590007EE4F020D20590007E91
:1006A300E4F030D70590007EE4F0C2D275E0807BA1
:1006B30081791BD3376402600590007EE4F030D665
:1006C3000590007EE4F020D20590007EE4F020D770
:1006D3000590007EE4F0C2D2C2D775E0C07BC27938
:1006E3001BD3376483600590007EE4F030D6059019
:1006F300007EE4F030D20590007EE4F020D7059030
:0D070300007EE4F0C2D7D0E0D0D00227ABDA
:100D48007BFF7A0579B4120065C0D0C0E075D00089
:100D5800D2D3D2D475E001D3340F6411600590006A
:100D68007EE4F020D60590007EE4F030D2059000B5
:100D78007EE4F030D70590007EE4F0C2D675E040FE
:100D8800D334406481600590007EE4F030D605904D
:100D9800007EE4F020D20590007EE4F030D7059084
:100DA800007EE4F0C2D275E080D33481640260052D
:100DB80090007EE4F030D60590007EE4F020D20565
:100DC80090007EE4F020D70590007EE4F0C2D2C205
:100DD800D775E0C0D334C26483600590007EE4F028
:100DE80030D60590007EE4F030D20590007EE4F025
:100DF80020D70590007EE4F0C2D7D0E0D0D00227FB
:010E0800AB3E
:100BC2007BFF7A0579BF120065C0D0C0E075D00006
:100BD200D2D3D2D475E010780ED398640160059018
:100BE200007EE4F020D60590007EE4F030D205903D
:100BF200007EE4F030D70590007EE4F0C2D675E0C6
:100C020080793FD3996440600590007EE4F020D65D
:100C12000590007EE4F020D20590007EE4F030D70B
:100C22000590007EE4F0C2D275E0017A80D39A6426
:100C320080600590007EE4F030D60590007EE4F0FE
:100C420020D20590007EE4F020D70590007EE4F0EB
:100C5200C2D2C2D775E0827BC1D39B64C0600590CB
:100C6200007EE4F030D60590007EE4F030D20590AC
:100C7200007EE4F020D70590007EE4F0C2D7D0E0F9
:050C8200D0D00227ABF9
:10096F007BFF7A0579CA120065C0D0C0E075D00050
:10097F00D2D3D2D475E010780ED3951864016005E8
:10098F0090007EE4F020D60590007EE4F030D20592
:10099F0090007EE4F030D70590007EE4F0C2D6756B
:1009AF00E080793FD395196440600590007EE4F0B4
:1009BF0020D60590007EE4F020D20590007EE4F072
:1009CF0030D70590007EE4F0C2D275E0017A80D373
:1009DF00951A6480600590007EE4F030D605900093
:1009EF007EE4F020D20590007EE4F020D705900041
:1009FF007EE4F0C2D2C2D775E0827BC1D3951B646F
:100A0F00C0600590007EE4F030D60590007EE4F0E3
:100A1F0030D20590007EE4F020D70590007EE4F000
:090A2F00C2D7D0E0D0D00227AB01
:100710007BFF7A0579D5120065C0D0C0E075D000A6
:10072000D2D3D2D475E0107A0ED3781A96640160D1
:100730000590007EE4F020D60590007EE4F030D2F3
:100740000590007EE4F030D70590007EE4F0C2D63C
:1007500075E0807A3FD3781A966440600590007EF9
:10076000E4F020D60590007EE4F020D20590007ED3
:10077000E4F030D70590007EE4F0C2D275E0017B52
:1007800080D3791B976480600590007EE4F030D6BA
:100790000590007EE4F020D20590007EE4F020D7A2
:1007A0000590007EE4F0C2D2C2D775E0827BC1D34F
:1007B000791B9764C0600590007EE4F030D6059008
:1007C000007EE4F030D20590007EE4F020D7059062
:0D07D000007EE4F0C2D7D0E0D0D00227AB0D
:100E09007BFF7A0579E0120065C0D0C0E075D0009B
:100E1900D2D3D2D475E010D3940E6401600590004A
:100E29007EE4F020D60590007EE4F030D2059000F3
:100E39007EE4F030D70590007EE4F0C2D675E080FC
:100E4900D3943F6440600590007EE4F020D605907D
:100E5900007EE4F020D20590007EE4F030D70590C2
:100E6900007EE4F0C2D275E001D39480648060050D
:100E790090007EE4F030D60590007EE4F020D205A3
:100E890090007EE4F020D70590007EE4F0C2D2C243
:100E9900D775E082D394C164C0600590007EE4F008
:100EA90030D60590007EE4F030D20590007EE4F063
:100EB90020D70590007EE4F0C2D7D0E0D0D0022739
:010EC900AB7D
:1019AE007BFF7A0579EB120065C0D0C0E075D000E0
:1019BE00D2D3D2D475E0A50464A6600590007EE46F
:1019CE00F030D60590007EE4F030D20590007EE433
:1019DE00F030D70590007EE4F0D0E0D0D00227ABF7
:101862007BFF7A0579F2120065C0D0C0E075D00026
:10187200D2D3D2D4751BA50B781BE664A660059063
:10188200007EE4F030D60590007EE4F030D2059080
:10189200007EE4F030D70590007EE4F0D0E0D0D0B6
:0318A2000227AB6F
:101797007BFF7A0579FA120065C0D0C0E075D000EA
:1017A700D2D3D2D4751CA5051C781CE664A66005A7
:1017B70090007EE4F030D60590007EE4F030D2054C
:1017C70090007EE4F030D70590007EE4F0D0E0D0C2
:0417D700D00227AB6A
:101641007BFF7A067902120065C0D0C0E075D00038
:10165100D2D3D2D4751CA5791C07781CE664A66088
:101661000590007EE4F030D60590007EE4F030D2A3
:101671000590007EE4F030D70590007EE4F0D0E0E4
:05168100D0D00227ABF0
:10151A007BFF7A06790A120065C0D0C0E075D00058
:10152A00D2D3D2D4901234A3E582643560059000F8
:10153A007EE4F0E5836412600590007EE4F030D624
:10154A000590007EE4F030D20590007EE4F030D7BA
:0D155A000590007EE4F0D0E0D0D00227AB79
:1019EE007BFF7A067912120065C0D0C0E075D00078
:1019FE00D2D3D2D475E0A51464A4600590007EE421
:101A0E00F030D60590007EE4F030D20590007EE4F2
:101A1E00F030D70590007EE4F0D0E0D0D00227ABB6
:1018A5007BFF7A067919120065C0D0C0E075D000BB
:1018B500D2D3D2D4751BA51B781BE664A460059012
:1018C500007EE4F030D60590007EE4F030D205903D
:1018D500007EE4F030D70590007EE4F0D0E0D0D073
:0318E5000227AB2C
:1017DB007BFF7A067921120065C0D0C0E075D0007E
:1017EB00D2D3D2D4751CA5151C781CE664A4600555
:1017FB0090007EE4F030D60590007EE4F030D20508
:10180B0090007EE4F030D70590007EE4F0D0E0D07D
:04181B00D00227AB25
:101686007BFF7A067929120065C0D0C0E075D000CC
:10169600D2D3D2D4751CA5791C17781CE664A46035
:1016A6000590007EE4F030D60590007EE4F030D25E
:1016B6000590007EE4F030D70590007EE4F0D0E09F
:0516C600D0D00227ABAB
:10116A007BFF7A067931120065C0D0C0E075D000E5
:10117A00D2D3D2D4D375E00875F003A464186005FD
:10118A0090007EE4F0E5F0600590007EE4F030D651
:10119A000590007EE4F030D20590007EE4F030D76E
:1011AA000590007EE4F0D375E0A875F0EFA464D84A
:1011BA00600590007EE4F0E5F0649C600590007E96
:1011CA00E4F030D60590007EE4F020D20590007E4F
:1011DA00E4F030D70590007EE4F0D0E0D0D00227CA
:0111EA00AB59
:101268007BFF7A067937120065C0D0C0E075D000E0
:10127800D2D3D2D4D3D2D275E0FB75F01284640DE8
:10128800600590007EE4F0E5F06411600590007E52
:10129800E4F030D60590007EE4F030D20590007E70
:1012A800E4F030D70590007EE4F0D375E0A875F03F
:1012B800008430D60590007EE4F020D20590007EB0
:1012C800E4F030D70590007EE4F0D0E0D0D00227DB
:0112D800AB6A
:1012D9007BFF7A06793F120065C0D0C0E075D00067
:1012E900D2D3D2D475E0567B67D2D6D33BD464240B
:1012F900600590007EE4F030D60590007EE4F02091
:10130900D20590007EE4F020D70590007EE4F075C8
:10131900E0302499D46429600590007EE4F030D649
:101329000590007EE4F030D20590007EE4F020D7ED
:0D1339000590007EE4F0D0E0D0D00227AB9C
:0F27CC004552524F5220484552452E2E2E0A009C
:1027AB0090007EE0700B7BFF7A2779CC120065805E
:0227BB00FE22FC
:0F27BD001215B21215671214C6121C9B021F844C
:1015B200120C87120A381207DD120ECA120AFD1225
:1015C20008A6120643120D48120BC212096F120727
:1015D20010120E091219AE12186212179712164142
:1015E20012151A1219EE1218A51217DB121686120C
:0815F200116A1212680212D9FD
:101567001223F012231B122111122564121DEC12F3
:10157700213D12241A12234612216912258D121EAB
:101587001A1221951224441223711221C11225B671
:10159700121E481221ED12276212262F122656120A
:0B15A7001D8E12267D121DBD0226A421
:1014C60012239C1222191220351226F212224412DD
:1014D600226F12253B12229A1222C5122061121E79
:1014E600D01223C612208D121EFD1222F0121C6786
:1014F600121CFF121D5F1220B9121F2A1220E512BC
:101506001F57121A2E121A6A121C32121BFB121BBA
:041516008B021BC366
:101C9B00122718121FB1122787121FDD12273D12B0
:101CAB00200912246E1224971224C01224E9122543
:101CBB0012121EA312141012146B1213461213AB32
:031CCB000211EB18
:101F840012181F1216CB121B19121B521225DF1224
:101F94002607121CCE121AA5121ADF1215FA1218ED
:0D1FA400E812192A12170F12196C021753B8
:030000000227DBF9
:0C27DB00787FE4F6D8FD758121021D30E6
:10000300E517240BF8E60517227808300702780B6A
:10001300E475F0011211340210DC2000EB7F2ED2C4
:10002300008018EF540F2490D43440D4FF30040BD5
:10003300EF24BFB41A0050032461FFE518600215D2
:1000430018051BE51B7002051A30070D7808E475C7
:10005300F001121134EF0211220226CB7403D207EE
:100063008003E4C207F5178B088A09890AE4F518A7
:10007300F51AF51BE51860077F2012003E80F57521
:1000830019FFC201C200C202C203C205C206C208EE
:1000930012000CFF700D3007057F0012004FAF1BDD
:1000A300AE1A22B4255FC2D5C20412000CFF24D0BD
:1000B300B40A00501A75F00A781830D50508B6FF4F
:1000C3000106C6A426F620D5047002D20380D924E3
:1000D300CFB41A00EF5004C2E5D20402024FD2019A
:1000E30080C6D20080C0D20280BCD2D580BAD205ED
:1000F30080B47F2012003E2002077401B51800402F
:10010300F1120003FF12003E020077D208D20680EC
:1001130095120003FB120003FA120003F94A4B7015
:100123000679207A037BFF20022EE518602A7E00E1
:100133008E827583001210F560060EEE651970F05D
:10014300C2D5EBC0E0EAC0E0E9C0E0EE120296D00F
:10015300E0F9D0E0FAD0E0FB1210DCFF60AAEBC0BC
:10016300E0EAC0E0E9C0E012003ED0E02401F9D0AB
:10017300E03400FAD0E0FBE5190460DCD519D9803E
:10018300877BFF7A027992D202809C791080027970
:1001930008C206C2088008D2D5790A8004790AC247
:1001A300D5E519047002F519E4FAFDFEFF12000308
:1001B300FC7B08200113120003FD7B1030000A12A0
:1001C3000003FE120003FF7B20EC3382D592D5504F
:1001D30013C3E43000069FFFE49EFEE42001039D69
:1001E300FDE49CFCE4CBF8C201EC700CCFCECDCC8B
:1001F300E824F8F870F38017C3EF33FFEE33FEED16
:1002030033FDEC33FCEB33FB994002FB0FD8E9EBF6
:10021300300105F8D0E0C448B201C0E00AEC4D4E0D
:100223004F78207B0070C2EAB5190040BCC0E012D1
:100233000298D0F0D0E0200104C4C0E0C4B201C0F1
:10024300F0120027D0F0D5F0EB0200771211440131
:100253001453018E5800E54C00E14201924F019A7C
:0F02630044019A4900FA4301A0550184460184E1
:100272004501844703405000E92D00ED2E01102B6B
:1002820000F123010E2003292A00A94800000108D9
:100292003F3F3F00790AA2D5200314300509B91067
:1002A200020404B9080104A2D52006025001042068
:1002B20002689202B518005034C0E07F2030031962
:1002C2007F30A20272067205500F1202EFC202C202
:1002D20006C205C2087F30800F300503E9C0E01274
:1002E200003E300503D0E0F9D0E0B518CC30051758
:1002F2007F30B9100C12003E7F583004077F78809F
:1003020003B9080312003E3002057F2D02003E7F32
:10031200202008F87F2B2006F322920280CF286E3D
:10032200756C6C2900D2011200033001F8C2017809
:100332001830D50108F60200A92D50434958120081
:10034200032403B405004001E490033B9312002F01
:0D035200743A12002FD20375180402018EB8
:1010DC00BB010689828A83E0225002E722BBFE0212
:0910EC00E32289828A83E4932245
:1010F500BB010CE58229F582E5833AF583E02250B0
:1011050006E92582F8E622BBFE06E92582F8E222F9
:0D111500E58229F582E5833AF583E4932213
:10112200BB010689828A83F0225002F722BBFE01AC
:02113200F322A6
:10113400FAE6FB0808E6F925F0F618E6CA3AF622BC
:10114400D083D082F8E4937012740193700DA3A33A
:1011540093F8740193F5828883E47374029368604E
:06116400EFA3A3A380DF4E
:1026CB00EFB40A07740D1226D6740A309811A89924
:1026DB00B8130CC2983098FDA899C298B811F6306F
:0726EB0099FDC299F5992247
:00000001FF
